:020000040800F2
:10000000082C00200D03000823440008D1410008FB
:1000100021440008752A0008FB6100080000000068
:100020000000000000000000000000007502000851
:10003000152B000800000000B90200084547000821
:1000400027030008270300082703000827030008E8
:1000500027030008270300082703000827030008D8
:1000600027030008270300082703000827030008C8
:1000700027030008270300082703000827030008B8
:1000800027030008270300082703000879610008F8
:1000900085610008270300082703000827030008DC
:1000A0002703000827030008270300082703000888
:1000B00027030008F147000827030008270300086A
:1000C0002703000827030008270300082703000868
:1000D0002703000827030008270300082703000858
:1000E00027030008270300082703000800F002F890
:1000F00000F0B0F80AA090E8000C82448344AAF112
:100100000107DA4501D100F0A5F8AFF2090EBAE80F
:100110000F0013F0010F18BFFB1A43F0010318473B
:1001200080780000A07800000A444FF0000C10F81E
:10013000013B13F0070408BF10F8014B1D1108BF65
:1001400010F8015B641E05D010F8016B641E01F805
:10015000016BF9D113F0080F1EBF10F8014BAD1C55
:100160000C1B09D16D1E58BF01F801CBFAD505E073
:1001700014F8016B01F8016B6D1EF9D59142D6D3CD
:10018000704700000023002400250026103A28BFF5
:1001900078C1FBD8520728BF30C148BF0B607047F9
:1001A0006E2900F04982702900F09383662907F0D8
:1001B0008982652907F08682672907F08382612991
:1001C00007F0828203681B0A28BF41F08001692979
:1001D00000F0F681642900F0F381752900F0F081C8
:1001E0006F2900F02183782900F05F83E92900F06E
:1001F000BB82E42900F0B882F52900F0B582EF292E
:1002000000F01E83F82900F05E830368DB0928BF35
:1002100041F08001632901F0BB80732901F0C080A7
:10022000E32901F0CB80F32901F0D0800020704752
:100230001FB501F041F904000020002106F0BCFECA
:10024000401C60600020002106F0A0FEE0601FBDA1
:1002500010B510BD01F002F91146FFF7E9FF06F0F5
:1002600047F901F02DFC03B4FFF7F2FF03BC01F0E6
:1002700093FE0000224B19680868B0E8F00F80F385
:100280000988BFF36F8F4FF0000080F311884EF0A4
:100290000D0E70470000000006480068006880F3FB
:1002A000088862B661B6BFF34F8FBFF36F8F00DF70
:1002B00000BF00BF08ED00E0EFF30980BFF36F8FD0
:1002C0000F4B1A6820E9F00F106008B54FF050008E
:1002D00080F31188BFF34F8FBFF36F8F06F0B6FC2A
:1002E0004FF0000080F31188BDE8084019680868E5
:1002F000B0E8F00F80F30988BFF36F8F704700BF3D
:1003000088000020EFF3058070470000094880470F
:1003100009480047FEE7FEE7FEE7FEE7FEE7FEE7E7
:10032000FEE7FEE7FEE7FEE704480549054A064BFF
:1003300070470000EF470008ED0000080824002087
:10034000082C002008280020082800207CB51D4625
:1003500016460C00009001D02044401E074B7B4401
:100360002A4669460190304600F07FF905461CB1E7
:100370000020694600F08CF928467CBD3903000056
:1003800030B505460B462A4613F8014B12F8010B0F
:1003900008B1A042F8D01CB1002802D06D1CF1E7D2
:1003A000284630BD032A40F2308010F0030C00F0E4
:1003B000158011F8013BBCF1020F624498BF11F89F
:1003C00001CB00F8013B38BF11F8013BA2F1040258
:1003D00098BF00F801CB38BF00F8013B11F00303D0
:1003E00000F02580083AC0F0088051F8043B083A34
:1003F00051F804CBA0E80810F5E7121D5CBF51F8D6
:10040000043B40F8043BAFF30080D20724BF11F84F
:10041000013B11F801CB48BF11F8012B24BF00F8B4
:10042000013B00F801CB48BF00F8012B704710B525
:10043000203AC0F00B80B1E81850203AA0E81850DC
:10044000B1E81850A0E81850BFF4F5AF5FEA027C9D
:1004500024BFB1E81850A0E8185044BF18C918C00C
:10046000BDE810405FEA827C24BF51F8043B40F8AD
:10047000043B08BF7047D20728BF31F8023B48BF92
:1004800011F8012B28BF20F8023B48BF00F8012BD0
:1004900070474FF0000200B5134694469646203947
:1004A00022BFA0E80C50A0E80C50B1F12001BFF42D
:1004B000F7AF090728BFA0E80C5048BF0CC05DF893
:1004C00004EB890028BF40F8042B08BF704748BFE1
:1004D00020F8022B11F0804F18BF00F8012B704755
:1004E00070477047704710B500F012FB006810BDF0
:1004F00010B5044600F00CFB046010BD70B5044656
:1005000085690068C10601D5302600E02026C007B5
:1005100007D070BDD4E9012130469047206A401CC5
:1005200020626D1EF6D570BD70B5044685690078F1
:10053000C00707D170BDD4E9012120209047206A6F
:10054000401C20626D1EF6D570BD09684A0501D5B4
:1005500040B27047C905FCD500B2704709684A052A
:1005600001D5C0B27047C905FCD580B2704770B5DF
:100570000C460546012A05D02878800600D5EA6990
:10058000002302E0012305E05B1C934202D2E05C01
:100590000028F9D1A869E618C01AA861286A184489
:1005A00028622846FFF7AAFF04E0D5E9012114F8E4
:1005B000010B9047B442F8D32846FFF7B5FF70BD52
:1005C0002DE9F0410646002410687529314616A52C
:1005D00010D0FFF7BAFF002802DA404213A507E067
:1005E00031688A0701D512A502E0490704D511A593
:1005F000012401E0FFF7B2FF00210A2206F12407DF
:1006000009E0B0FBF2FCB0FBF2F302FB1C0030305F
:1006100078541846491C0028F3D123462A46304610
:10062000BDE8F04100F0C6BA000000002D00000057
:100630002B0000002000000011680268006A5305CA
:1006400001D508700AE0D30501D5088006E013063D
:1006500003D5C217C1E9000200E00860012070471D
:1006600001694A1C02610878704700B58FB0CDE976
:1006700001310021059105497944CDE90310114666
:10068000684600F031F90FB000BD0000E5FFFFFF44
:100690000A6802F8010B0A607047D1E900239A4208
:1006A00002D2531C0B601070704700002DE9FF5FF1
:1006B00015468A460446DFF8AC80F8440027D8E99E
:1006C00000103E46CDE9001010E03AF816106A46D8
:1006D00002A800F09FFE411C07D02178890603D5AF
:1006E000E269391891420DD80744761C20788006BB
:1006F00002D5E069B84205DDAE42E6DB3AF8160005
:100700000028E2D1A069C01BA0612046FFF7F6FED9
:10071000D8E90010CDE90010002017E03AF81810D1
:100720006A4602A800F076FEB0F1FF3F81460BD08A
:1007300000250DF1080B05E0D4E901211BF80500A7
:1007400090476D1C4D45F7D308F10100B04280463B
:10075000E4DB206A384420622046FFF7E5FEBDE86E
:10076000FF9F0000C27100002DE9F0418046D21DBC
:1007700022F007020025D2E90002F52915A614D0BF
:10078000011E72F1000106DA0023D0EB030063EBD7
:10079000020211A608E0D8F800108B0701D50FA6B9
:1007A00002E0490701D50EA601251146002408F1F3
:1007B000240704E000F0B0F930323A55641C50EAE6
:1007C0000102F7D12B46324621464046BDE8F041B2
:1007D00000F0F0B9000000002D0000002B00000028
:1007E0002000000030B4002100F1240408E002F0F1
:1007F0000705D208303542EA4372DB086554491CCC
:1008000052EA0305F3D10468002310A2250708D596
:1008100004F020040C4304D0C46901230CA2641E1C
:10082000C46130BC00F0C6B910B50446214610685A
:10083000FFF794FE02462046BDE810400023D1E7B2
:10084000D21D22F00701D1E90023CBE70000000010
:1008500030000000F0B40D460188090502D5214C96
:100860007C4402E01F4C7C440E34002100F124063D
:1008700008E002F00F071209E75D42EA03721B0964
:100880007754491C52EA0307F3D102780023120778
:1008900004D5702D06D009B1022311342246F0BCD4
:1008A00000F088B901231034F8E770B504460D460E
:1008B00021461068FFF752FE024629462046BDE851
:1008C00070400023C6E7D21D22F00703D3E90023BE
:1008D000C0E70368126843F0200303600823C36184
:1008E0000023B7E7247000002DE9F05F8946044635
:1008F0004FF0000ADFF874B1FB44C0F820A0204696
:10090000E1688847002874D0252806D0D4E9012161
:100910009047206A401C2062F1E700265F4620468F
:10092000E16888472028054607DB312D05D2781974
:1009300010F8200C08B10643F1E7B00701D526F006
:100940000406C4F81CA00027C4F818A02A2D09D05A
:10095000284605F03CFD38B304EB8708303DC8F865
:10096000185019E059F8041B204604EB87029161E6
:10097000E1688847012F054618D1E069002820DA90
:1009800026F020061DE0D8F8180000EB800005EBEB
:1009900040003038C8F818002046E168884705460E
:1009A00005F015FD0028EED1012F0AD02E2D08D11B
:1009B0002046E16888477F1C0546022F46F0200646
:1009C000C4DBA069002803DA404246F00106A061BA
:1009D000F00701D026F010066C2D0BD0682D09D041
:1009E0004C2D39D06A2D35D0742D35D07A2D33D099
:1009F00016E038E0E1682F4620468847B8420546B1
:100A000009D16C2F26D04FF48060E1680643204660
:100A10008847054604E06C2F1AD04FF480700643D7
:100A20000DB3A5F14100192802D8203546F400661F
:100A30004A462946204626604E46FFF7B1FB80B164
:100A400001280BD0F61D26F0070000F1080956E733
:100A50004020E4E78020D8E70020D6E706F104092B
:100A60004DE7284652E7206ABDE8F09FB46F0000CA
:100A70000FB4002300B589B00CA900910B99CB608D
:100A8000204B7B440693204B7B44079304236FF059
:100A90000042CDE901321D4A7A446B460892024673
:100AA000002006F099FE09B05DF814FB70B506460B
:100AB0004FF0FF3015460C46324686B00091CDE926
:100AC000010169460020049004A8FFF7D1FF034606
:100AD0000498211825B108B10A4600E022462A6090
:100AE00000280DD0002B02DD0098884208D0324645
:100AF000081B69460094CDE9010404A8FFF7B8FF7C
:100B000006B070BD4F090000670900000701000032
:100B100000487047A423002030B5B0F10A024FEA24
:100B2000900E71F100034EEA817EB0EB0E0061EB96
:100B300091014FEA101E4EEA017E10EB0E0041EBD0
:100B400011114FEA102E4EEA016E10EB0E0041EB30
:100B500011214FEA104E4EEA014E10EB0E0041EB10
:100B60001141401841F100014FEAD00040EA4170C4
:100B70004FEAD10110EB80054FEA810444EA9074FA
:100B800044EB01046D1944EB0404521BA3414FF0E4
:100B9000000348BF0A3200D530BD401C41F10001BE
:100BA00030BD10B5044600F07FFC0068005D00F029
:100BB000010010BD2DE9F0470D46994692460446C6
:100BC00000F124080168880604D5E06921F01001CD
:100BD000216000E00120A84201DD471B00E0002762
:100BE000A1697A1902EB0900081AA0612078C006F1
:100BF00002D42046FFF782FC002608E0D4E9012158
:100C00001AF806009047206A401C761C20624E4568
:100C1000F4DB2078C0060AD52046FFF76FFC06E01B
:100C2000D4E9012130209047206A401C2062381E00
:100C3000A7F10107F4DC07E0D4E9012118F8050069
:100C40009047206A401C2062281EA5F10105F3DCB4
:100C50002046FFF769FC2078000602D50220BDE897
:100C6000F0870120FBE770472DE9FF4F0C461E4639
:100C70004FF0FF378BB0D2E90001DDF860800A90B9
:100C80008A46C1F30A5505B93D46002108464FF092
:100C90000000BAF1000F00F4400005DA00EB80001C
:100CA0004FF4400101EA50004FEA9059B9F1010FA9
:100CB00000DDB9460A9850EA4A000ED044F61050BA
:100CC000A5F2FF3545432F14B8F1000F1ED0754231
:100CD000291E1EDDC9F100021CE0B8F1010F4FF022
:100CE000000001D0302103E0F24305E02154401C14
:100CF000B042FBDB30460022002121540B99C1F8A1
:100D00000880C1E900200FB0BDE8F08FBD1B6D1C4D
:100D1000DEE74A4600DA694206A800F063FE06AB49
:100D200093E8070003AB83E8070050460A9901F0F7
:100D30005BF98DE80700A0F500501F38009003987C
:100D4000002D09DD42F21F014A46084403A9039021
:100D5000684601F0E4FB08E0A0F500504A461F3861
:100D600003A90390684601F002FC8DE80700000427
:100D7000000C03D04FF0FF30410800E01046B8F1FE
:100D8000000F03D00022009215461EE0751E05D408
:100D9000FFF7C2FE303262556D1EF9D5B34601220F
:100DA000084302D000227F1C04E02078302801D1C3
:100DB00000227F1E002A099786D01DE0112D07DA38
:100DC000FFF7AAFE303262556D1C50EA0102F5D1E0
:100DD000084302D00098C8B10EE00021681E05E06B
:100DE000235C625C63542254401E491C8142F7DB41
:100DF000AB46A81B401E0990002004F80B000B987E
:100E0000099AC0F80880C0E9002B7CE711264FF052
:100E1000000859E72DE9F04F88460446D21D22F01C
:100E2000070191B0D1E90001CDE90A0105F044FACA
:100E300002460B98C00F01D02D2007E020688107E3
:100E400001D52B2002E0202101EAC000032A0990ED
:100E500001D0072A05DB03464146204600F030FB5F
:100E60000BE12078800601D5E06900E00620B8F1AA
:100E7000650F814606D0B8F1660F18D0B8F1670F3C
:100E800070D131E00020B9F1110F009001DB112386
:100E900001E009F101030AAA01A90CA8FFF7E4FE89
:100EA000DDE90C70002609F10105834647E00120C9
:100EB0004B4600904FF000470AAA01A90CA8FFF783
:100EC000D3FEDDE90DB00C995D46002610B909F19D
:100ED00001000D18B9EB050003D4C0F1FF3609F18C
:100EE0000105A5EB09002BE0B9F1010F01DA4FF084
:100EF00001090020B9F1110F0090484601DD1123CE
:100F000000E003460AAA01A90CA8FFF7ADFEDDE93F
:100F10000C704D4600268346207800070AD4AB4566
:100F200000DA5D4601A8012D04DD411911F8011C0C
:100F3000302907D04F4502DA17F1040F04DA0120F7
:100F400082460FE06D1EEEE7002F02DCED1B3E44F3
:100F500003E0781CA84200DD7D1CB81B00F1010AEB
:100F60004FF000472078000703D4AA4501DB4FF07B
:100F7000FF3A0021B7F1004F0DF143088DF84310FF
:100F800024D002202B23002F01DA7F422D230A21B7
:100F9000021EA0F1010000DC5FB197FBF1FC97FBA2
:100FA000F1F201FB1C7C17460CF1300C08F801CD66
:100FB000EEE7A8F1010003702188090501D545215C
:100FC00000E06521A0F1010800F8011C09980FA9B3
:100FD000A1EB0807FF1D00B10120411901EBEA70E8
:100FE000A1693844081A401EA0612078C00602D4C6
:100FF0002046FFF783FA099828B1D4E901219047E8
:10100000206A401C20622078C00622D52046FFF7C7
:1010100075FA1EE0002E04DBB34502DD01A8805DF9
:1010200000E03020D4E901219047206A401C206272
:10103000761CAAF101005FEA000A0AD100F03CFA2E
:10104000C0680168405CD4E901219047206A401CD7
:101050002062281EA5F10105DCDC07E0D4E90121AE
:1010600018F8010B9047206A401C2062381EA7F137
:101070000107F3DC2046FFF757FA032011B043E6DF
:101080002DE9F04F04460D46D21D22F0070089B02D
:10109000D0E9009248461746394605F00DF9024658
:1010A000F80F01D02D2307E02068810701D52B23FD
:1010B00002E0202101EAC0038DF820300BB10120AD
:1010C00000E00020032A824601D0072A04DB2946DB
:1010D000204600F0F5F93DE12078800601D40D2589
:1010E00000E0E569C7F30A560D2D49DA00214FEA01
:1010F000175B08464FF00000002F00F4400007DAAD
:1011000000EB80004FF4400100EBD07001EA60007A
:101110008115012901DD4FF0FF3100224FEA850CD6
:10112000BCF1180F06D31346ACF118004FF08052F3
:10113000C24003E04FF4801323FA0CF30CF10C0CC3
:10114000BCF1200F04D3ACF1200C09FA0CF001E043
:1011500007FA0CF000294FF0004801DD18B90FE044
:101160000ED140450CD319EB02095F4121B940452E
:1011700002D19F4329EA0209BBEB175F00D0761C1E
:101180002088000502D57B48784402E079487844FD
:10119000193808AA302302F80A30037C0AF1010149
:1011A000002E0AF1020A53546A4602DC4FF0300165
:1011B00001E04FF031014FF001088DF8001002D02E
:1011C000A6F2FF3603E059EA470100D06A4E002D2F
:1011D00002DC2178090704D54FF002082E218DF892
:1011E0000110C44600210BE0C7F303433F01C35C79
:1011F000491C6D1E02F80830052908F1010801DAC2
:10120000002DF1DC00210CE000EB1973491C1B7868
:101210006D1E082902F808304FEA091908F1010883
:1012200001DA002DF0DC2178890602D514E0A8F15E
:101230000108E04505DD02EB080111F8011C302929
:10124000F5D0B8F1000F07DD02EB080111F8011C21
:101250002E2901D1A8F10108002D05DD3E2102F85B
:1012600008106D1E08F10108407C002E02F80800ED
:1012700008F1010804DA2D20764202F8080002E0A5
:101280002B2002F808000A214FF47A70864208F1F8
:1012900001080BDB96FBF0F3303302F8083096FBC5
:1012A000F0F308F1010800FB136601E0642E0CDB8B
:1012B000642096FBF0F3303302F8083096FBF0F32D
:1012C00008F1010800FB136601E00A2E06DB96FB1D
:1012D000F1F0303002F8080008F1010896FBF1F057
:1012E00001FB1060303002F80800A16908F1010824
:1012F00008EB050202EB0A00081AA0612078C0067C
:1013000002D42046FFF7FAF8216A08AE01EB0A0082
:10131000206204E0D4E9012116F8010B9047BAF1EC
:10132000010AF7D22078C00602D52046FFF7E6F87A
:101330006E4609E016F8010B3E280FD0D4E90121D2
:101340009047206A401C2062B8F10108F2D2204682
:10135000FFF7EAF809B00320BDE8F08F206A2844BF
:10136000206203E0D4E90121302090476D1EEBD3C9
:10137000F8E700004867000002FCFFFF10B5436972
:1013800013B1AFF3008001E0FFF7F1F8012010BDC9
:10139000127800F124010A7000224A700122EDE760
:1013A00011684FF0FF32E9E710B5436913B1AFF3AD
:1013B000008001E0FFF77AF9012010BD128800F1EA
:1013C000240182840022C2840122EDE711684FF0DB
:1013D000FF32E9E7426842B1016811F8013B23B1ED
:1013E000521EC0E90012184670470121C160881ED4
:1013F000704742685AB1C368016843B983688B4239
:1014000005D0491E521CC0E90012002070474FF061
:10141000FF30704770B516460C46054600F044F89C
:10142000036893F80101012806D0FF2C0FD8185D3E
:1014300068B101202C7070BDD3F8070132462146F7
:1014400003F2071303442846BDE8704018474FF0E5
:10145000FF3070BD00487047A42300207546FFF799
:10146000F9FFAE4605006946534620F00700854661
:1014700018B020B5FEF758FFBDE820404FF0000639
:101480004FF000074FF000084FF0000B21F007016C
:10149000AC46ACE8C009ACE8C009ACE8C009ACE8AF
:1014A000C0098D467047000010B500F005F8001D1A
:1014B00010BD00BF055B000000487047C42300203A
:1014C0002DE9F0411F46044603260168072A01F46E
:1014D000006004DB08B116A505E016A503E008B11D
:1014E00015A500E015A521F010002060A069C01E20
:1014F000A0610FB1401EA0612046FEF7FFFF4FB173
:10150000D4E9012138469047206A401C2062C01C63
:10151000206206E0206AFAE7D4E9012115F8010B00
:101520009047761EF8D22046FEF7FEFFBDE8F08118
:101530004E414E006E616E00494E4600696E660077
:101540002DE9FF4F064689B00878FF2806D0491CD0
:101550002D2805D000244FF0000908E000200CE001
:101560000124F8E709EB8903491C00EB43090878DB
:10157000FF28F7D114B1C9F1000081461078002589
:101580002C46AA4629462D2801D02B2804D1521CCE
:101590002D2813D0002082468B461078FF280FD0CC
:1015A0004FF0000C0A21521CA5FB017804FB0181BD
:1015B00005FB0C11C5194BEB0104EEE70120EAE72E
:1015C000002108464FF00000BAF1000F02D000EBF6
:1015D00080004008C0F38158B8F1010F01DD4FF0E1
:1015E000FF380C9809EB000755EA040009D04FF0CA
:1015F000020917F5FA7F0BDA4FEACA70C6E900B0A4
:1016000012E04FEACA70C6E900B00DB0BDE8F08F35
:10161000B7F5FA7F0DDDF0487844D0E90010C6E94F
:10162000001040EACA707060FFF772FAC0F80090CC
:10163000EBE7391E02DAC8F1000200E0424600DAA8
:10164000794206A800F0CEF906AB93E8070003AB99
:1016500083E8070044F23E005BEA0401009058462C
:1016600004D144F21E012C465D460091210C090470
:10167000014306D10099240444EA15442D0410398D
:10168000009104F07F41014306D10099240244EA0D
:1016900015642D020839009104F07041014306D110
:1016A0000099240144EA15742D01091F009104F0EA
:1016B0004041014306D10099A40044EA9574AD006D
:1016C000891E009104F00041084304D100986D196F
:1016D0006441401E009042466846002FCDE9014516
:1016E00003A902DD00F057FF01E000F02CFFBAF182
:1016F000000F04460D4601D084F0004440F2FF770D
:1017000024F00040284303D0C4F30A50B84212D159
:10171000FFF7FEF9C0F80090C4F30A50B8420AD1AE
:10172000AE487844D0E90010C6E9001004F000414A
:101730000843706069E7C6E9005466E72DE9FF4F8A
:101740001F464FF0000A4FF0FF38454691B0D7E9E9
:101750000146CDF83CA0FFF7AFFEC0680168405CD1
:101760001090B96912986D1C8847396A814688477C
:101770000028F6D1B9F1FF3F0AD0002E24F4D0643E
:1017800011DDB9F12B0F08D0B9F12D0F0BD102E00B
:10179000404615B03AE744F48064B96912986D1C6C
:1017A0008847761E8146600504A901D52D2000E0FA
:1017B0002B20002E01F1010B0DF130088DF81000E7
:1017C0003FDDB9F1690F08D0B9F1490F05D0B9F182
:1017D0006E0F02D0B9F14E0F1CD13B4601A8009507
:1017E00080E85002DDE912126FF0020005F0F8FF08
:1017F000C11CCED10EE0B96912986D1C8847814694
:101800001398761E44F4007405600F98401C002E57
:101810000F9016DDB9F1300FEDD0B9F1780F02D08D
:10182000B9F1580F0DD10F9801280AD13B46CDE9E7
:101830000054DDE91212001F029605F0CFFFC11C13
:10184000A7D1109989453ED144F0800406E0139950
:10185000681CAAF1010A44F400740860B9696D1C9F
:101860001298761E884730288146F0D02BE01099D8
:10187000894505D1200603D4761E44F0800418E083
:10188000484604F0A4FD08B3761E0DF123018B45F4
:1018900044F4007408D2A9F130000BF8010B2006C3
:1018A00007D5AAF1010003E0200602D40AF10100E5
:1018B0008246A00502D51399681C0860B969129880
:1018C0006D1C88478146002ED1DC53E0002E51DD8F
:1018D000B9F1650F02D0B9F1450F4BD1A00549D53B
:1018E000B9696D1C1298761E24F440748847002E46
:1018F00081460CDD2B2804D0B9F12D0F07D144F41B
:101900008074B96912986D1C8847761E8146E0057F
:1019100001D52D2100E02B2108F8011BCDF8008016
:1019200021E0761E0DF13901884544F400740CD293
:10193000A9F1300010F0FF0088F8000002D10099F2
:10194000884509D908F1010806E0E00501D52448D9
:1019500001E042F20F708246B96912986D1C884707
:10196000814613980560002E04DD484604F02FFDE3
:101970000028D6D1F96912988847FF2053468BF882
:10198000000088F8000000200A900B9004AA0CA91F
:101990000AA8FFF7D5FDA00502D46FF00100F8E614
:1019A00014F0240F0AD0E00714D13868DDE90A12D8
:1019B000031D3B600068C0E900120BE00AA96846FD
:1019C00004F0AEFCE00705D13868009A011D3960CB
:1019D000006802602846DCE6A46300009A6200000A
:1019E000F1D8FFFF2DE9F047814616468AB033480B
:1019F00078440DC88DE80D0030487844801C03AC55
:101A00000DC884E80D0041F69B300844372190FB57
:101A1000F1F290FBF1F5A5F1800501FB12041B3CEE
:101A200002D56442012000E00020DFF890A080464B
:101A30000027FA44AAF1BE0A0DE0E00709D03246B9
:101A4000684607EB47010AEB810100F090FD8DE845
:101A5000070064107F1C002CEFD1184F7F44AC3F6F
:101A600018E0E80714D007EB04100DF1180A90E80D
:101A70000E008AE80E00C068F04201D19819089063
:101A8000324606A903A800F072FD03AB83E8070005
:101A90006D10641C002DE4D132466946B8F1000F88
:101AA00003A802D000F03BFD01E000F060FDC9E9B1
:101AB0000001C9F808200AB0BDE8F087705F000097
:101AC0000446AFF300802046FEF7CDFB4FF0013C0B
:101AD00050F8042B51F8043B9A4221D1A2EB0C039D
:101AE000934313EACC1317D150F8042B51F8043B5D
:101AF0009A4215D1A2EB0C03934313EACC130BD1FA
:101B000050F8042B51F8043B9A4209D1A2EB0C0384
:101B1000934313EACC13DBD04FF00000704700BFB3
:101B2000D01A01BAB1FA81F101F0180122FA01F0DC
:101B3000CB40C1F12001DBB2C0B2C01A2CFA01F3D4
:101B4000D11A914311EAC311E6D170472DE9FF4F35
:101B50001F464FF03C0987B04FF00042DDE91410FA
:101B600001F10108DDF858A002EA4050039000207E
:101B700004908346054604460590B969461E0898B8
:101B80008847AAF1010A0290BAF1000F37DD0298E6
:101B90002E2815D0102100F018FA00282ADB4FF06B
:101BA000010B0499014316D0B9F1000F0BDB4A4633
:101BB000C11700F0F7F905430C43A9F1040905E04A
:101BC0000120059007E008B145F0010501200490CF
:101BD000059800B9361DB969089808F101088847C9
:101BE000BBF1000FAAF1010A0290CDD00999C1F80A
:101BF0000080C9E70298702808D0502806D0F969FB
:101C000008988847BBF1000F14D04FE000200290E5
:101C10000120BBF1000F049009D0B969089808F1C0
:101C200001088847AAF10109B9F1000F07DCF96939
:101C3000089888476FF001000BB0BDE8F08F2B28A3
:101C400004D02D280CD14FF0FF300490B9690898CA
:101C500008F101088847A9F10109B9F1000FE6DD93
:101C6000411CE4D00A2100F0B0F90028DFDB029922
:101C700008F1010801EB810100EB41000290B96914
:101C8000089888470A2100F0A0F9099AA9F10109EA
:101C9000B9F1000FC2F8008001DD0028E7DAF96928
:101CA000089888470499029800FB016655EA0400E9
:101CB00004D004F04041090002D006E0039898E007
:101CC000A40044EA9574AD00B61E04F0004108007B
:101CD00002D16D196441761E159810F0240F03D0BF
:101CE0004FF00B095C4803E04FF028096FF07D00CE
:101CF0008246564507DAAAEB06018944B9F1410F3D
:101D000001DD4FF0410901200021A9F1010200F09D
:101D100049F9024628400B462140084301D00121E1
:101D200000E00021501E029143F1FF312840214084
:101D3000084301D0012000E000200299834651EAC7
:101D40000B014FD0002108464FF00000039900F42A
:101D5000400039B100EB80004FF4400100EBD0703F
:101D600001EA60008015012802DD4FF0FF3000E03D
:101D700013D0401C36D0029860B3BBF1000F0CD1D9
:101D80004A460120002100F00DF928402140084377
:101D900001D0012000E00020E0B101204A460021EE
:101DA00000F000F9034640190A4661412D1A8C41A2
:101DB00011D3B9F1400F09DD159810F0240F02D0AE
:101DC000AAF1340603E0AAF1170600E0761C00250C
:101DD0004FF0004406E05B1E42F1FF3220EA0305AB
:101DE00021EA0204CAF10100B04206DA1B49039855
:101DF00008430190002000900EE0039AC4F3D32121
:101E0000E80A0A43164940EA44500A433146CDE9FC
:101E10000002684604F0D0FA159810F0240F0BD099
:101E20001598C00715D13868DDE90012031D3B6025
:101E30000068C0E900120CE002A8694604F070FADC
:101E40001598C00705D13868029A011D39600068ED
:101E500002604046F0E6000002FCFFFF0000F07F59
:101E60000000F03F2DE9FF4F92461D4685B04FF030
:101E70000041DDE9124BDDE914727F1E01EA4B508F
:101E8000414940F0FF4940EA0108002122F02000CA
:101E90004928049102D04E2828D04CE03BA00126CE
:101EA00007C88DE80700A9690698641C88477F1E4B
:101EB000014606D41DF8060018B121F02001814228
:101EC0000BD0E96906988847032E34D0082E32D00B
:101ED0006FF0010009B0BDE8F08F761C032E01D031
:101EE000082EE0D1601CCAF80000DCE7A96906985A
:101EF000641C88477F1E2AD420F02000412826D168
:101F0000A9690698641C88477F1E20D420F0200011
:101F10004E281CD1A9690698641C88477F1E48F486
:101F2000002849F48009CAF8004001D4282806D0C6
:101F3000E969069888475FEACB7012D022E0A96968
:101F40000698641C88477F1E01D4002803DAE969DB
:101F500006988847BCE72928F1D1641CCAF80040DC
:101F6000E9E71BF0240F07D028680499031D2B60B4
:101F70000068C0E9001805E02868021D2A600068B2
:101F8000C0F800902046A5E70000F07F494E464982
:101F90004E4954590000000001491820ABBEFEE72D
:101FA00026000200B2F120030AD5C2F1200301FA93
:101FB00002F120FA03F300FA02F041EA030170474C
:101FC00000FA03F14FF0000070473A2800D2303891
:101FD00020F02002412A01D3A2F13700884201D328
:101FE0004FF0FF30704770475FEA400C08BF91F038
:101FF000000F4FEA8C234FEAC12243EA51514FEAC6
:102000001C5018BF00F5F0404FEA300018BF41F0F7
:1020100000415FEA6C5C00F02980BCF1FF3F08BF23
:1020200040F080407047130C06BF12044FF0100CB4
:102030004FF0000C130E04BF12020CF1080C130F2A
:1020400004BF12010CF1040C930F04BF92000CF1B9
:10205000020CD30F04BF52000CF1010C11464FF0DB
:102060000002A0F11F00A0EB0C00704711F0004F20
:1020700008BF704731F000413FF4D5AF0B0C06BFED
:1020800009044FF0100C4FF0000C0B0E04BF0902B6
:102090000CF1080C0B0F04BF09010CF1040C8B0FA1
:1020A00004BF89000CF1020CCB0F04BF49000CF1F6
:1020B000010CCCF12003A0EB0C0022FA03F302FA8E
:1020C0000CF241EA030100F10100704720F07F4C5F
:1020D00080EA030023F07F47ACEB070303F57C5352
:1020E00000F0004003F1FF032DE980494FEA154B52
:1020F00009B44FEA144325EA0B4E24EA03480FF2D1
:10210000042606EB132749083E785FEA320203FBF8
:102110000667C7F5000707FB06F64FEA54374FEA94
:10212000D64606F1020607FB066CCCF1005C4FEACE
:102130001C472CEA074C07FB06F40CFB06F504EBE6
:1021400015464FEA961634BF00204FF000404FEA84
:10215000D13706FB07FC4FEA1C4C0CFB0BF7D21BDC
:1021600003FB0CF761EB07010CFB0EF7B0EB07402C
:1021700072EB17420CFB08F734BFA2EB0742B2EB3D
:10218000074261EB17414FEA0C444FEA910706FB07
:1021900007FC4FEA1C4C0CFB0BF7B0EBC74072EB93
:1021A000573203FB0CF734BFA2EBC742B2EBC74276
:1021B00061EB57310CFB0EF7B0EBC70072EB5772B7
:1021C0000CFB08F734BFA2EBC702B2EBC70261EB0E
:1021D0005771039F4FEA816141EA921104EBCC04ED
:1021E0004FEAD1374FEA826206FB07FC42EA9012BF
:1021F0004FEA80604FEA1C4C0CFB0BF7D21B03FB31
:102200000CF761EB07010CFB0EF7B0EB074072EB2C
:1022100017420CFB08F734BFA2EB0742B2EB0742B0
:1022200061EB17414FEA8C554FEA910704EB9C2470
:1022300006FB07FC4FEA1C4C0CFB0BF7B0EBC7404E
:1022400072EB573203FB0CF734BFA2EBC742B2EB81
:10225000C74261EB57310CFB0EF7B0EBC70072EBD6
:1022600057720CFB08F734BFA2EBC702B2EBC702F0
:1022700061EB577115EB4C254FEA816141EA9211F0
:102280004FEA82624FEAD13742EA901206FB07FC1E
:1022900044F100044FEA80604FEA1C4C0CFB0BF742
:1022A000D21B03FB0CF761EB07010CFB0EF7B0EB45
:1022B000074072EB17420CFB08F734BFA2EB074252
:1022C000B2EB074261EB174115EB1C154FEA813168
:1022D00041EA92414FEA823242EA90424FEA80302C
:1022E0004FEA0C7644F1000448EA03434EEA0B48F7
:1022F0004FF0000EB2EB080C71EB030724BF6246EF
:1023000039464EEB0E0E4FF0000B0018524149417A
:102310004BEB0B0BB2EB080C71EB03077BF1000BE3
:1023200024BF624639464EEB0E0E4FF0000B0018EC
:10233000524149414BEB0B0BB2EB080C71EB03071D
:102340007BF1000B24BF624639464EEB0E0E51EA7C
:10235000020718BF46F0010616EB0E7655F1000293
:1023600054F1000103D5BDE88901BDE80088BDE84E
:102370008901BDE80048B619524141EB0101A3F1C2
:102380000103704780807F7E7D7C7B7A79787776C9
:1023900076757473727171706F6E6E6D6C6C6B6A42
:1023A0006A696868676666656464636362616160E0
:1023B000605F5F5E5E5D5D5C5C5B5B5A5A5959585D
:1023C00058575756565555555454535352525251C7
:1023D000515050504F4F4F4E4E4D4D4D4C4C4C4B1D
:1023E0004B4B4A4A4A494949484848474747474664
:1023F00046464545454444444443434343424242A0
:102400004241414146EA0646A3F570534FEA16465B
:1024100046EA42564FEAD22242EA415210B54FEA0A
:10242000D121A3F1010300F017F820F0004000F1E2
:10243000010C00F0004701EB00501146BCF5006FA5
:1024400040EA070000D210BD02484FF0000140EA08
:10245000070010BD0000F07F002B26D4770021D0AC
:102460001CB54FEA370703B44FF010004FF01001CE
:102470004FF000000FBCBDE810400BF1010BBBF1A9
:10248000010F08BF5FEA170722BF12F1010211F125
:1024900001014FF0004143F1000300F0004043EA26
:1024A00000007047F9D35708DAE746EA064613F109
:1024B000400F4FEA16461FDD13F1200FDFBF164312
:1024C0000A46002120335B42C8D0C3F1200746EA08
:1024D000064602FA07F74FEA164646EA0706C3F130
:1024E000200722FA03F201FA07F721FA03F14FF06D
:1024F000000342EA0702B1E746EA020646EA064658
:102500004FEA164646EA0106BCBF46EA0646360CC6
:102510004FF000034FF000024FF000019EE72DE95D
:10252000C048934630B491E8380007C831EA400CFF
:1025300048BF34EA430C03D5FFF7C8FDFFF78CFF13
:10254000F0BCBDE800882DE9C048934630B491E85E
:10255000380007C831EA400C48BF34EA430C03D5C1
:10256000FFF7B4FDFFF74EFFF0BCBDE800882DE992
:10257000C048934630B491E8380007C810F0804F47
:1025800008BF13F0804F03D100F019F8FFF764FF84
:10259000F0BCBDE800882DE9C048934630B491E80E
:1025A000380007C810F0804F08BF13F0804F03D1E8
:1025B00000F005F8FFF726FFF0BCBDE8008820F02A
:1025C0007F4780EA030023F07F4C07EB0C03A3F561
:1025D0007C5300F00040A3F1FE0392F0000F00F0E6
:1025E000B38095F0000F00F077802DE901494FEAA4
:1025F00011404FEA144621EA004800FB06FC24EA99
:10260000064708FB06F607FB08F800FB07F718EB80
:1026100006484CEB164C4FEA124B18EB07484FEAB2
:1026200015464CEB174022EA0B4E0BFB06FC25EA45
:1026300006470EFB06F607FB0EFE0BFB07F71EEB2D
:10264000064E4CEB164C4FF000061EEB074E4CEBC3
:10265000174B18EB0B0840F1000018EB0E0B58EB72
:10266000000840F100008F1A4FF000013CBFC94341
:10267000661B14BFB5EB040C00213CBFC943F61B1D
:102680004FEA17444EEA8E0E27EA04454FEA1C47EC
:1026900004FB07622CEA074C05FB07F70CFB05F669
:1026A00004FB0CFC16EB074642EB174216EB0C46FC
:1026B00042EB1C421BEB060658EB0202414146EA84
:1026C0009E0601D5BDE80189B619524141EB0101D1
:1026D000A3F10103BDE801894FEA14454FEA114710
:1026E00024EA054621EA074C05FB07F406FB07F739
:1026F0000CFB06F105FB0CFC11EB074144EB174406
:102700004FEA124711EB0C4144EB1C4422EA074C00
:1027100005FB07F206FB07F70CFB06F605FB0CFCB6
:1027200016EB074642EB174216EB0C4642EB1C45F4
:102730006A1854F1000148BF7047B619524141EB85
:102740000101A3F10103704795F0000F37D04FEA64
:1027500011424FEA144721EA024624EA074C02FBE1
:1027600007F106FB07F70CFB06F402FB0CFC14EB6D
:10277000074441EB17414FEA154714EB0C4441EB7A
:102780001C4125EA074C02FB07F506FB07F70CFB8B
:1027900006F602FB0CFC16EB074645EB174516EB5D
:1027A0000C4645EB1C42121951F1000148BF70471D
:1027B000B619524141EB0101A3F1010370474FEA01
:1027C00014454FEA114724EA054621EA074C05FB68
:1027D00007F106FB07F70CFB06F24FF0000605FBBE
:1027E0000CFC12EB074241EB174112EB0C4251EB90
:1027F0001C4148BF7047921841EB0101A3F101034E
:10280000704738B50024009400F0F8F88DF80340C4
:1028100058208DF802008DF8014005208DF8000049
:102820006946042003F0FEFC8DF80340EC208DF88F
:10283000020080258DF801503C208DF8000069468B
:10284000042003F0EFFC8DF803408DF802400420D3
:102850008DF80100B3208DF800006946042003F0D4
:10286000E1FC8DF8034001208DF802000E208DF868
:10287000010042208DF800006946042003F0D2FCDC
:102880008DF803408DF802408DF8015029208DF815
:1028900000006946042003F0C5FC8DF803402C209D
:1028A0008DF802008DF8015018208DF8000069465F
:1028B000042003F0B7FC38BD2DE9F84F444A012548
:1028C00000274449904201DA104602E0884200DDC8
:1028D0000846414E4FF47A74314604F027FE04F066
:1028E000F1FD04F00FFE314604F00EFD824604F0C7
:1028F000E9FDDFF8E8B01FFA80F8002608FB05F0D4
:1029000004F0F2FB81465A46354B009104F094FCEA
:1029100006D84846334A344B009904F0FDFB09D9E8
:102920007F1C761C4FF6FF70B6B2BFB200EA4505B9
:102930000A2EE3D3284604F0E5FD514604F0F6FDE7
:102940002A4904F0E1FC064604F0BCFD85B22849A2
:10295000304604F0EBFD04F0B5FDB0FBF4F204FBEF
:102960001200052104E000BFB0FBF1F0B4FBF1F46C
:10297000B0FBF1F201FB120242B9B4FBF1F201FB30
:102980001242002AF0D001E04008640840EA040145
:10299000C907F9D00722B7FBF2F102FB1171EA0374
:1029A00002EBC00548F2010000EBC406114800EB41
:1029B0000154114803F022FC304603F01FFC284666
:1029C00003F01CFC2046BDE8F84F03F017BC0000E4
:1029D00000000C420080894500002041CDCCCCCCC9
:1029E000CC2FA1409A9999991930B1400000C84163
:1029F00000007A443C808C001C80EC000C4800B540
:102A0000816985B041F0080181618069694600F003
:102A100008000490002002904FF4704000900120C4
:102A2000019003200390034800F0ACF805B000BD0E
:102A300000100240000C014010B50CA1FDF7A0FCF5
:102A4000401C03F0CBFC04F0CDFA10F1FF4F01D392
:102A5000012100E00021B0F1844F01DD012200E0FE
:102A60000022114300D0024810BD000041000000C8
:102A7000000080BFFEE70020704700207047000084
:102A800010B500220449054802F0C4F8044903487F
:102A900002F0BAF8002010BDA80D0020A404002008
:102AA000A809002070B505460C4C086820603F2836
:102AB00001D93F202060024629460948FDF772FCF3
:102AC00007492268002088542946064802F09CF8ED
:102AD000044802F07DF8002070BD00007400002062
:102AE00068090020A4040020094A10B5D2F8B822D1
:102AF000D2F814220AB1012010BD0A46014604484A
:102B000002F088F8BDE81040014802F0E1B800008A
:102B1000A4040020704772B6FEE7000010B50CA1B7
:102B2000FDF72EFC401C03F059FC04F05BFA094948
:102B3000884201DA012100E00021074A904201DBCE
:102B4000012200E00022114300D0044810BD000023
:102B50004600000000000C4200808945000080BF54
:102B600070B5044600F00CF90546601C02D004481C
:102B70000078044400F004F9401BA042FAD370BD71
:102B8000780000202DE9F84FDFF8B891002409F112
:102B9000040A0AF1040B23460F270BF1040EC9E0C7
:102BA0000125A5402A40AA427DD1674ED1F804C034
:102BB000ACEB0608B44532D014DCBCF1030F3AD0BC
:102BC00009DCBCF1000F2AD0BCF1010F1CD0BCF114
:102BD000020F31D11DE0BCF1110F17D0BCF1120F63
:102BE0002AD119E0B8F5881F19D006DCB8F5803F66
:102BF00015D0B8F5801F1FD111E0B8F5001F0ED019
:102C0000B8F5041F18D10AE0CB6815E0CB681B1D8E
:102C100012E0CB6808330FE0CB680C330CE08B6814
:102C20002BB1012B4FF0080303D0456104E00423CE
:102C300002E0056100E00023FF2A01D8064601E01A
:102C400000F104064FEA840501D9A5F12005D6F864
:102C5000008007FA05FC28EA0C0803FA05F548EAA3
:102C60000508C6F800804D68ED0062D5374DAE69A5
:102C700046F00106AE61AD6924F0030605F00105DA
:102C80000095334D06EB050CDCF80850A607360F0F
:102C900007FA06F825EA0805DFF8B880404503D1B1
:102CA0004FF0000817E044E0DFF8AC80404502D167
:102CB0004FF001080FE0DFF8A480404502D14FF04B
:102CC000020808E0DFF89880404502D14FF0030881
:102CD00001E04FF0040808FA06F848EA0508CCF8C5
:102CE00008804D68D9F80060ED034D4601D51643C4
:102CF00000E096432E604D68DAF80060AD0355465B
:102D000001D5164300E096432E604D68DBF8006065
:102D1000ED025D4601D5164300E096432E604D68F6
:102D2000DEF80060AD02754601D5164300E096431B
:102D30002E60641C0D682A46E5407FF431AFBDE883
:102D4000F88F000000040140000011100010024044
:102D50000000014000080140000C0140001001404B
:102D600000140140C26821EA02030A4043EA02411A
:102D7000016170470AB1016170470904FBE7000077
:102D800001488068704700007800002070B504009A
:102D900011D021684CF6CC400860216845F25550AE
:102DA0000860D4E9000141602168A0688860FFF7ED
:102DB000E7FF05460DE0012070BD00BFFFF7E0FF13
:102DC000401B272805D92068C068800701D0032050
:102DD00070BD2068C0688007F0D121684AF6AA203B
:102DE0000860002070BD00684AF6AA21016000203A
:102DF0007047000002488168027811448160704782
:102E000078000020074810B5016841F0100101600A
:102E1000032000F09DF80F2000F006F800F050F8B5
:102E2000002010BD0020024030B505461F4887B085
:102E3000C16941F00201C161C06906A900F0020048
:102E4000009001A800F078FE0498B0B100F09AFE5E
:102E500040001749174AB0FBF1F11748491E0260BC
:102E6000416040F2E7320021C0E9032181608161C5
:102E700001F060F8040003D015E000F083FEE8E7FD
:102E80000D4801F085F804000DD11D2000F032F846
:102E9000102D07D2002229461D2000F039F80748DE
:102EA000056000E0012407B0204630BD001002405C
:102EB00040420F00000400405C0400207C00002021
:102EC0000B4882B0816941F001018161816901F0A3
:102ED00001010091C16941F08051C161C0690022C6
:102EE00000F0805000900F21901E02B000F010B84A
:102EF00000100240002809DB00F01F020121914070
:102F00004009800000F1E020C0F800117047000087
:102F1000F0B40E4B1B680C46C3F30223C3F1070544
:102F2000042D00D90425191D072901D2002300E032
:102F3000DB1E012606FA05F1491E214099409E40FC
:102F4000761E16403143F0BC03F0CAB90CED00E028
:102F5000064900F0070208684FF6FF03184040EAF0
:102F60000220034A10430860704700000CED00E0A7
:102F70000000FA0510B50C0607D501F0070101EBBA
:102F8000810100EBC100283005E001EB810100EB7D
:102F9000C10000F5B47099B232B10122027301810F
:102FA000190C4181002010BD00220273C180F9E795
:102FB000704701EB810200EBC202D0F8E802D26B4D
:102FC00002F035B801EB810200EBC202D0F8E80252
:102FD000D2F87C2102F08EB870B504460B0601F0E1
:102FE000070000EB800104EBC1014FF001024FF03C
:102FF000000503D581F82920283103E081F86951C3
:1030000001F5B471087094F8A802012808D084F87A
:10301000A822206802F0AEFC84F8A852002070BDFF
:10302000022070BD70B5044601F00F006268904246
:1030300001D9012070BD0B0601F0070000EB8001F3
:1030400004EBC1014FF001024FF0000503D581F8F8
:103050002920283103E081F8695101F5B4718D70A0
:10306000087094F8A802012808D084F8A8222068E3
:1030700002F01DFD84F8A852002070BD022070BD32
:103080002DE9F05F04685FEA424C0B788D69B4F873
:1030900050C04FF000064BF68F7948F2800A48F690
:1030A0008F7B48F2C00E4FF480672AD54FF002089C
:1030B00008EBC308C44407EB4C07E45BC4F3090402
:1030C000A54203D32D1B8D6101D00BE08E610668F4
:1030D00036F8235005EA090585F4005545EA0A0546
:1030E00026F82350520609D50D78036833F82520B9
:1030F00002EA0B0242EA0E0223F8252084B30A8971
:1031000029E04FF0060808EBC308C44407EB4C075E
:10311000E45BC4F30904A54203D32D1B8D6101D0E8
:103120000BE08E61066836F8235005EA090585F440
:10313000005545EA0A0526F82350520609D40B78B3
:10314000056835F8232002EA0B0242EA0E0225F850
:1031500023202CB14A8949690068234603F01CF8F2
:103160002046BDE8F09F2DE9F05F054600680C465B
:103170005FEA426C16468B692278B0F850C048F678
:103180008F774CF280094FF6FF7B4FF4004E4FF4DF
:10319000806A4FF000017BD54FF0020808EBC208AF
:1031A000E0440AEB480C30F80C00C0F309008342FD
:1031B00011D91B1AA3610FD0730407D52E6836F8F6
:1031C00022303B4043EA090326F8223094F82420B9
:1031D000012A50D04EE1A161607810B1012813D0CE
:1031E0001AE02868B0F85030184400EB0210B0F82C
:1031F000042422F4F842A0F80424B0F8042442F491
:103200000042A0F8042407E02868B0F850301844C1
:1032100000EB0210A0F804146278286812B1012AA9
:1032200011D018E0B0F850100844217800EB0110DC
:10323000B0F80C1421F4F841A0F80C14B0F80C14F8
:1032400041F4004105E0B0F850201044227800EB32
:103250000210A0F80C1421782846FFF7AAFE70048B
:10326000B8D521782A6832F82100384040EA0900B0
:1032700022F82100FEE0626902446261E2690244D0
:10328000E2612369226A9A4203D31846111A04E0C4
:1032900038E084F824100AB110462162617811B137
:1032A000012923D02BE02968B1F85020114422785D
:1032B00001EB021101F2044148B13E280FD8420847
:1032C000C30700D0521C0BEA82220A8017E00A884A
:1032D00022F4F8420A800A8842F40042F5E74209E3
:1032E000C30600D1521E4EEA8222EEE72968B1F8E9
:1032F00050201144227801EB0211A1F8040483B29A
:103300002289B3E04FF0060808EBC208E0440AEB5C
:10331000480C30F80C00C0F30900834211D31B1A8B
:10332000A3610FD0730407D42E6836F822303B40D7
:1033300043EA090326F8223094F82420012A50D0C9
:1033400098E0A161607810B1012813D01AE02868D4
:10335000B0F85030184400EB0210B0F8042422F406
:10336000F842A0F80424B0F8042442F40042A0F883
:10337000042407E02868B0F85030184400EB02102D
:10338000A0F804146278286812B1012A11D018E05C
:10339000B0F850100844217800EB0110B0F80C147C
:1033A00021F4F841A0F80C14B0F80C1441F40041D9
:1033B00005E0B0F850201044227800EB0210A0F88D
:1033C0000C1421782846FFF7F4FD700452D42278BB
:1033D000296831F82200384040EA090021F822002B
:1033E00048E0626902446261E2690244E261236981
:1033F000226A9A4203D31846111A216204E00AB1E4
:103400001046216284F824106278296812B1012ADA
:1034100022D029E0B1F850201144227801EB0211AA
:1034200001F20C4148B13E280FD84208C30700D032
:10343000521C0BEA82220A8016E00A8822F4F84223
:103440000A800A8842F40042F5E74209C30600D127
:10345000521E4EEA8222EEE7B1F850201144227843
:1034600001EB0211A1F80C04628983B2616928683A
:1034700002F0B0FE21782A6832F8210048F6BF73C6
:10348000184080F0300048F28003184322F82100F1
:103490000020BDE8F09F01F0070101EB810100EB86
:1034A000C100D0F8840170472DE9F04104460F06B1
:1034B00001F0070000EB800104EBC1014FF00106B1
:1034C0004FF0000503D581F82960283103E081F829
:1034D000695101F5B47108700A61CB704A7802B184
:1034E000C881022B00D10D7194F8A802012809D0DF
:1034F00084F8A862206802F00FF9284684F8A852E0
:10350000BDE8F0810220FBE770B50C4601F007052D
:1035100005EB850100EBC101C1E95F230022C1F881
:10352000842181F8692181F8685101F5B47162073D
:10353000006802F011FB002070BD70B504460D4616
:1035400001F007006168884201D9012070BD290699
:103550004FF000064FF0010207D500EB800104EBAD
:10356000C10181F82920283107E005EB850104EB32
:10357000C10181F8696101F5B4718A70087094F82D
:10358000A802012807D084F8A822206802F0CBFA0C
:10359000680702D006E0022070BD04F52C71206897
:1035A00002F083FA84F8A862002070BD70B50C4662
:1035B00001F0070505EB850100EBC101C1E90F230F
:1035C000012281F84C208B6400234B6481F8292070
:1035D00001F8285F6207006802F0BEFA002070BDA3
:1035E0001FB50446006802F0D3FD000402D5204652
:1035F00000F018FF206802F0CBFD40050CD52068D4
:1036000030F8441F21F480610180204600F026F943
:103610000021204600F03DF9206802F0B9FD400489
:1036200005D5206830F8441F21F4804101802068CE
:1036300002F0AEFD800405D5206830F8441F21F467
:1036400000510180206802F0A3FDC00414D5206859
:1036500030F8401F21F004010180206830F8401F3D
:1036600021F008010180204600F00BF9206830F8B5
:10367000441F21F480510180206802F089FD00057B
:103680003ED522680020694632F8203021F81030FB
:10369000401CC0B20828F7D332F8400F40F00100B8
:1036A0001080206830F8402F22F00102028020684C
:1036B000B0F844205205FBD530F8442F22F4806244
:1036C00002800020236831F8102023F82020401CBD
:1036D000C0B20828F6D3206830F8401F41F0080136
:1036E0000180206830F8441F21F4006101802068C7
:1036F00030F8401F41F004010180204600F0FEF840
:10370000206802F045FD800508D5206830F8441F88
:1037100021F400710180204600F0B7F8206802F023
:1037200037FDC00505D5206830F8441F21F48071AD
:1037300001801FBD2DE9F04186B0040004D094F84B
:10374000A902002520B108E0012006B0BDE8F08103
:1037500084F8A852204600F05BF8032084F8A90200
:10376000206802F09BF904F1100114228846684693
:10377000FCF75DFE94E80F0002F0FAF80226D0BBD9
:103780000021206802F01EFD002001270FE000BF8D
:1037900000EB800104EBC10181F8297001F8280FCA
:1037A000C881CD700D614D61401CC0B28D616168F2
:1037B0008142EDD8002011E000EB800104EBC10153
:1037C00081F8695181F8680181F86B51C1F878512D
:1037D000C1F87C51401CC0B2C1F88051616881427F
:1037E000EAD8142241466846FCF721FE94E80F000F
:1037F00002F04BF910B184F8A962A5E784F82450CF
:1038000084F8A972206802F03EF900209DE70000CC
:1038100008B500680F4988421AD10F48C16941F4C0
:103820000001C161C069002200F400000090052180
:103830001320FFF76DFB1320FFF75CFB002205212F
:103840001420FFF765FBBDE808401420FFF752BBCA
:1038500008BD0000005C00400010024070B5044646
:1038600080680125022801D0FFF755F92946D4F8D0
:10387000E80201F028FDD4F8E802BDE8704001F04C
:10388000E4BCD0F8E80201F008BDD0F8E80201F08D
:103890000EBD10B5044690F8A80201280BD00120F7
:1038A00084F8A80284F82410206802F08DFC00201F
:1038B00084F8A80210BD022010BDD0F8E82200F55F
:1038C0002C71104601F00BBD10B5044690F8A8020B
:1038D000012810D0012084F8A802206802F042FCE0
:1038E00001212046FFF764FB206802F0CAF800209F
:1038F00084F8A80210BD022010BD000010B50446D7
:10390000D0F8E80201F02AFDA069002804D003489D
:10391000016841F00601016010BD000010ED00E0FB
:103920002DE9F84305460078354CC00754D0E069CE
:103930000026C00008D4E06940F08050E061E069F2
:10394000012600F0805000902E480168C90512D46D
:103950000168804641F480710160FFF711FA074663
:1039600005E000BFFFF70CFAC01B642823D8D8F885
:103970000000C005F6D5206A10F4407021D0A98857
:1039800001F4407181421CD0206A1F49012220F4B9
:1039900040700A6000220A602062C00711D0FFF761
:1039A000EFF9074641F2883808E000BFFFF7E8F971
:1039B000C11B414502D90320BDE8F883206A800776
:1039C000F4D5206A696820F44070084320621EB173
:1039D000E06920F08050E0612878800705D56068B4
:1039E000A96820F44040084360602878C00605D5E7
:1039F0006068E96820F48000084360600020DBE72D
:103A00000010024000700040400442422DE9F0479F
:103A10000F46050061D0434E306800F00700B84201
:103A200009D2306820F0070038433060306800F079
:103A30000700B84251D128683B4C810712D5400796
:103A400003D5606840F4E06060602878000703D523
:103A5000606840F4605060606068A96820F0F00021
:103A6000084360602878C00728D06868012810D013
:103A70002168022810D0890700292EDA616821F018
:103A8000030101436160FFF77BF9804641F2883909
:103A90000DE021688903EFE78901EDE7FFF770F991
:103AA000A0EB0801494502D90320BDE8F087606812
:103AB000696800F00C00B0EB810FEFD1306800F0C6
:103AC0000700B8420BD9306820F007003843306057
:103AD000306800F00700B84201D00120E5E72878FF
:103AE000400705D56068E96820F4E060084360603D
:103AF0002878000706D56068296920F4605040EAFC
:103B0000C100606000F04EF86168084AC1F303111B
:103B1000515CC8400649086006480068FFF784F910
:103B20000020C2E700200240001002406878000830
:103B3000840000207C0000200F2202600C4A5368A1
:103B400003F003034360536803F0F003836053689A
:103B500003F4E063C36052684FF4E06303EAD20207
:103B600002610448006800F0070008607047000028
:103B70000010024000200240014800687047000029
:103B8000840000200448054900684968044AC1F3DC
:103B90000221515CC84070478400002000100240A0
:103BA0007878000812A185B00FC98DE80F0014A025
:103BB000144A006804905168134801F00C03042B68
:103BC00010D0082B0ED1C1F38343C9031DF80300A5
:103BD0000AD5516804AAC1F34041515C0A4A5043D6
:103BE000B0FBF1F005B0704708494843FAE7000020
:103BF00002030405060708090A0B0C0D0E0F10102E
:103C0000010200000010024000127A0000093D008D
:103C10002DE9F84F040070D02078C04DC00749D07E
:103C20006868C0F38100012807D06868C0F381008C
:103C3000022809D16868C00306D52868800339D5F1
:103C400060680028E7D035E06068B0F5803F0BD0B1
:103C500010B1B0F5A02F11D0286820F48030286072
:103C6000286820F4802002E0286840F48030286032
:103C7000606890B1FFF784F806460AE0286840F4CF
:103C800080202860F0E700BFFFF77AF8801B6428E7
:103C900073D828688003F7D50CE0FFF771F8064663
:103CA00005E000BFFFF76CF8801B6428F0D8286897
:103CB0008003F7D420789A4E80074FF001094FF027
:103CC000000839D5686810F00C0F07D06868C0F399
:103CD0008100022809D16868C00306D428688007DB
:103CE00014D52069012808D110E02069B0B1C6F8C8
:103CF0000090FFF745F8074605E00AE1FFF740F8B6
:103D0000C01B0228C4D828688007F7D528686169D5
:103D100020F0F80040EAC10028600DE0C6F80080FD
:103D2000FFF72EF8074604E0FFF72AF8C01B022829
:103D300023D828688007F7D4207800072CD5794845
:103D4000A169D9B1C0F80090FFF71AF8074604E05E
:103D5000FFF716F8C01B02280FD8686A8007F7D54E
:103D600071484FF4FA510068B0FBF1F0009000BFC9
:103D70000098411E0091FAD20EE080E0C0F8008069
:103D8000FEF7FEFF074604E0FEF7FAFFC01B02281D
:103D900075D8686A8007F7D42078400760D5E8694D
:103DA0000027C00008D4E86940F08050E861E86965
:103DB000012700F0805000905C480168C90513D4C9
:103DC0000168834641F480710160FEF7D9FF8246A5
:103DD00006E000BFFEF7D4FFA0EB0A0064284ED82F
:103DE000DBF80000C005F5D5E06801280AD008B16D
:103DF000052813D0286A20F001002862286A20F0E4
:103E0000040002E0286A40F001002862E06841F204
:103E1000883B98B1FEF7B4FF82460BE0286A40F079
:103E200004002862EEE700BFFEF7AAFFA0EB0A013C
:103E300059455AD8286A8007F6D50CE0FEF7A0FF4E
:103E4000824605E0FEF79CFFA0EB0A0159454CD8DD
:103E5000286A8007F6D41FB1E86920F08050E86135
:103E6000E06988B36968C1F38101022944D002285E
:103E7000C6F8608004D0FEF783FF044638E034E0E3
:103E8000FEF77EFF074604E0FEF77AFFC01B02281C
:103E90002BD828688001F7D4206AB0F5803F05D17F
:103EA0006868A16820F4003008436860D4E908011C
:103EB0000843696821F4741108436860C6F860908B
:103EC000FEF75EFF044606E025E000BFFEF758FF60
:103ED000001B022809D828688001F7D51BE000BF25
:103EE000FEF74EFF001B022802D90320BDE8F88F21
:103EF00028688001F4D40EE00128F7D06868226AAF
:103F000000F48031914204D1616A00F4701088425B
:103F100001D00120EAE70020E8E70000001002409D
:103F200000004242800442428400002000700040B1
:103F30007047704710B5040003D094F83D0010B1ED
:103F400007E0012010BD002084F83C00204600F06E
:103F50001EF8022084F83D00211D206800F04EFC70
:103F6000012084F8460084F83E0084F83F0084F87D
:103F7000400084F8410084F8420084F8430084F84B
:103F8000440084F8450084F83D00002010BD7047CF
:103F900090F83D10012901D001207047022180F8DE
:103FA0003D100168CA6842F00102CA6000680B490E
:103FB000884208D0B0F1804F05D00949884202D02C
:103FC0000849884204D1816801F00701062903D01D
:103FD000016841F00101016000207047002C0140A0
:103FE0000004004000080040704770B504460068B7
:103FF00001694FF00005C943890715D4C168C94359
:10400000890711D4E91E01610120207720688069A9
:104010008007204602D0FFF7E7FF04E000F098F8A1
:10402000204600F096F8257720680169C9434907C2
:1040300017D4C168C943490713D46FF00401016163
:10404000022020772068806910F4407F204602D04B
:10405000FFF7CAFF04E000F07BF8204600F079F893
:10406000257720680169C943090716D4C168C94387
:10407000090712D46FF0080101610420207720683D
:10408000C0698007204602D0FFF7AEFF04E000F0D1
:104090005FF8204600F05DF8257720680169C94384
:1040A000C90617D4C168C943C90613D46FF01001FB
:1040B0000161082020772068C06910F4407F204605
:1040C00002D0FFF791FF04E000F042F8204600F034
:1040D00040F8257720680169C943C90708D1C1683C
:1040E000C943C90704D1891E0161204600F032F896
:1040F00020680169C943090609D4C168C943090692
:1041000005D46FF0800101612046FFF711FF2068A0
:104110000169C943490609D4C168C943490605D4A0
:104120006FF040010161204600F01EF8206801692F
:10413000C94389060BD4C168C943890607D46FF007
:10414000200101612046BDE87040FFF7F2BE70BD5E
:104150007047704700680349884201D1FEF74ABEA4
:1041600070470000000400407047000070B540F345
:104170004012164D044601212846521CFEF7FAFD56
:1041800044F3001202212846521CFEF7F3FD44F3CB
:10419000C00204212846521CFEF7ECFD44F38002C5
:1041A00008212846521CFEF7E5FD44F34002102189
:1041B0002846521CFEF7DEFD44F300022846BDE807
:1041C00070402021521CFEF7D5BD000000080140C0
:1041D000FEE70000F0B500230A24302537261F46ED
:1041E00011E000BFB4EB107F02D905EB107C01E0B9
:1041F00006EB107C01F813C001EB430C00015B1CC3
:104200008CF80170DBB29342ECD3F0BD10B596B0E0
:104210001C2211496846FCF70AF90021684602F0A1
:104220008CF90E4C0C491C22A0601C3107A8FCF72D
:10423000FEF8002107A802F080F90749E0601C227F
:1042400038310EA8FCF7F3F800210EA802F075F93A
:10425000206116B010BD0000147800080000002096
:104260002DE9F04186B00024204800940194029486
:104270000394816941F020018161816901F020018D
:104280000491816941F004018161816901F00401B7
:104290000491816941F0080181618069144F00F047
:1042A0000800049001223F213846FEF763FDDFF845
:1042B0004480002220214046FEF75CFD3F2001257E
:1042C0000226CDE90005CDE9024669463846FEF7EB
:1042D00059FC2020CDE90005CDE90246694640465B
:1042E000FEF750FC06B0BDE8F0810000001002406F
:1042F00000080140000C0140094810B50749016061
:10430000042141604FF47A718160FEF73FFD00287F
:1043100003D0BDE81040FEF7FEBB10BD00300040EA
:104320005004002010B500220F49104800F058FE3C
:1043300008B1FEF7F0FB0E490C4801F035F808B162
:10434000FEF7E9FB0B49094800F056FC08B1FEF7FF
:10435000E2FB064801F07EF8002803D0BDE81040DB
:10436000FEF7D9BB10BD000014000020A4040020FB
:10437000C401002064000020234D00242879FFF7A9
:10438000F5FEFEF73EFA2868FEF796FA1426DFF8E7
:104390007C80DFF87CA0322742F2107941F2883B22
:1043A00094FBF6F006FB104018B920211948FEF7DF
:1043B000D9FC94FBF7F007FB104010B91648FEF744
:1043C00012FD94FBF8F108FB1141494507D128790A
:1043D000FFF7CCFEFEF715FA2868FEF76DFA94FB9E
:1043E000FAF10AFB1141594505D12879FFF7BEFEC4
:1043F0002868FEF761FA0948641C844200DD002445
:104400000A2002F08EF8CBE70000002080EE360094
:10441000407E0500000C01405004002000D68300BF
:10442000FEE7FEE72DE9F84F044640F68F7B48F69D
:104430000F7A4FF002094FF4806874E1B0F844102D
:1044400011F00F063AD030F8267039047DD530F8D7
:10445000261001EA0B0141F0800120F8261006EB3E
:10446000860004EBC00595F8740105F5B4750028C5
:104470006CD0E87802286AD02878226832F82010B8
:1044800048F68F73194048F2C003194322F82010F0
:104490002878D4F800C03CF82010BCF8502049041B
:1044A0007ED509EBC000111808EB41003CF8000074
:1044B0008005800D009074D02A89D8E0C9062DD4DB
:1044C000018801EA0A0141F400410180216804F1F8
:1044D0002805B1F850202B7809EBC300024408EB03
:1044E0004200085AC0F309006064E16B0844E063CD
:1044F00000212046FEF75DFD94F8240000289CD0A2
:10450000A869002899D194F82400216840F080001F
:10451000A1F84C00002084F8240004E1018804F58F
:10452000B4750A0521D5B0F850202B78062101EB8F
:10453000C3010A4408EB4201405A04F52C71C0F350
:104540000903EB61EA88206802E0ACE068E07AE009
:1045500001F022FE2168088800EA0B0040F080008C
:1045600008802046FFF7A9F9DDE00904D5D50188C8
:1045700001EA0B0141F0800101802068B0F8502071
:104580002B78062101EBC3010A4408EB4201405A93
:1045900083059B0DEB6110D0696971B1EA8801E078
:1045A00058E056E0206801F0F7FDE96968690844C1
:1045B000686100212046FEF705FD20680188090595
:1045C0002DD4B0F850100844296900F20C4051B1C4
:1045D0003E2910D84A08C90700D0521C4FF6FF7177
:1045E00001EA82210FE0018821F4F841018001886D
:1045F00041F4004107E04A09C90600D1521E4FF4B8
:10460000004141EA82210180206801884BF68F72C7
:10461000114081F4405148F280021143018082E050
:10462000D4F800C0BCF850102A78062000EBC20075
:10463000014408EB41003CF800008005800D00902B
:104640001AD0EA8813E03A4629462046FEF718FDBC
:10465000009011E0062101EBC000111808EB4100A9
:104660003CF800008005800D009005D06A89034663
:104670006046696901F090FDE96900980844E861C5
:104680006969009808446861A86918B129690098A7
:10469000814204D929782046FEF794FC03E029469C
:1046A000206801F059FA38063DD506EB860004EB88
:1046B000C001206830F8262002EA0A0242F40042D3
:1046C00020F8262091F82B002831032804D018B1B7
:1046D000022824D1F80522D42368B3F850200D789D
:1046E00009EBC500024408EB4200185A8A69C0F37E
:1046F000090082420CD9121A8A610BD04A6902441D
:104700004A61CA691044C861206801F025FA0AE0CC
:1047100000208861E9B22046FEF74BFC03E03A46F0
:104720002046FEF720FD2068B0F8441009043FF54C
:1047300085AE0020BDE8F88FFFF7F4FD012001F001
:10474000F0FEFBE710B5502080F31188BFF34F8FC8
:10475000BFF36F8F02F054FB18B104494FF0805043
:104760000860002080F3118810BD000004ED00E017
:1047700030B593B028216846FBF78BFE14210AA8B8
:10478000FBF787FE00240F9409200121109400906C
:10479000119412944FF4803004910691CDE90104F4
:1047A0000225CDE907504FF4E01009906846FFF765
:1047B0002FFA08B172B6FEE70F20CDE90A054FF4D3
:1047C0008060CDE90C4002210AA80E94FFF71EF983
:1047D00008B172B6FEE710200F9012940FA8FFF7F1
:1047E0009FF8002801D072B6FEE713B030BD7047C5
:1047F0000148FFF7FABB00005C040020F0B5026836
:10480000164B174C174D4FF08047984205D0B842D1
:1048100003D0A04201D0A84203D122F070064A681A
:104820003243984205D0B84203D0A04201D0A842FA
:1048300003D122F44074CA6822434C6922F08002FA
:10484000224302608A68C2620A688262984201D189
:104850000969016301214161F0BD0000002C0140A4
:10486000000400400008004088B0394F394C6E46C3
:1048700000252268002A66D0374938A002F0A8F83F
:104880002168881E092803D33DA002F0A1F859E051
:104890000020314A02E0135C3354401C8842FAD3B2
:1048A00075549DF80000662802D0612802D004E00B
:1048B000462000E041208DF8000036A16846FBF755
:1048C0005FFDA8B16846FEF729F98046B8420AD0D4
:1048D000FDF7F2FF404602F0E5FC02460B462EA033
:1048E00002F076F802E032A002F072F88DF8005083
:1048F00038A16846FBF744FD20B36846FEF79CF8F4
:104900008046B84219D002F0CDFC02460B4632A0D8
:1049100002F05EF80121404602F038FF02F0B6FDD9
:10492000DFF8CC800146C8F8040032A002F050F84D
:1049300098F80400FFF71AFC02E034A002F048F8EF
:104940008DF800502560142001F0EBFD91E7000088
:10495000000080BF74000020680900207265636554
:104960007669656420636F6D6D616E643D202573AB
:10497000202072786C656E203D2025640D0A0000B1
:104980004C656E6774682057726F6E6721210D0A3F
:104990000000000046000000476574204672657103
:1049A00075656E6379A3A1252E32660D0A0000009D
:1049B0004672657175656E63792077726F6E6721D7
:1049C000284633352D4634343030204D487A290D71
:1049D0000A0000004100000047657420617474659E
:1049E0006E756174696F6EA3A1252E32660D0A0083
:1049F0000000002073657420617474656E20766118
:104A00006C75653D25640D0A0000000061747465D5
:104A10006E756174696F6E20646174612077726F66
:104A20006E67212841302E352D3332290D0A0000C2
:104A30002DE9F041D0F8C032D0F8B822CAB101EB6C
:104A4000810500EB85040026E7693FB103EBC50350
:104A50009B6BB7FBF3F503FB157323B1C2F814622C
:104A60000020BDE8F08100231A46E66100F07FFCDB
:104A7000F6E70220F5E770B50546D0F8B84200F039
:104A80007AFBC4F80C02D5F8B80248B1D5F8BC12CC
:104A9000D4F80402CA6804F503719047002070BD81
:104AA000022070BD70B504460026812100F0B6FAE0
:104AB000002501212046E56200F0B0FA822120465F
:104AC000C4F86C5100F0AAFA2564D4F8B80248B1D1
:104AD000D4F8BC0204F52E7440688047206800F0CA
:104AE00016FE2560304670BD10B5D0E9AE4159B113
:104AF00094F80002FF2807D08B6894F80122214621
:104B00009847FF2084F80002002010BD0A21018090
:104B100000487047EC0000204321018000487047A6
:104B20003C0100204321018000487047F80000202C
:104B30004321018000487047800100202DE9F041A9
:104B400004460026007C4FF40077012590B34023F3
:104B500002228121204600F063FB4023E56202220D
:104B60000121204600F05CFB08230322822120461D
:104B7000C4F86C5100F054FB4FF40770256400F04A
:104B8000C7FDC4F8B802F8B10546D4F8BC02006805
:104B900080470020C5F81402C5F81802207CD5F81B
:104BA000042298B140230121204600F045FB304605
:104BB000BDE8F081FFE73B4602228121204600F05C
:104BC0002FFB3B46E562CAE70126F0E73B46EAE7F2
:104BD00010B5D0F8B81269B1027C002AD1F80422CD
:104BE00005D04023012100F027FB002010BD4FF429
:104BF0000073F7E7022010BD02460220002902D010
:104C00000020C2F8BC127047D0F8B802C0F80412F5
:104C100000207047D0F8B802C0F81022C0F808127F
:104C2000002070472DE9FC410546D0F8B8720020FD
:104C30008DF80000ADF80400064608780C4610F028
:104C4000600121D020293BD1E288AAB1000660781A
:104C500007D5D5F8BC128B6839469847E2883946A3
:104C600026E087F80002A07987F80102E288394639
:104C7000284600F06AF828E0D5F8BC1260780022D7
:104C80008B682146984720E0607820B10A2809D037
:104C90000B2815D110E095F89C02032810D10222B0
:104CA00001A905E095F89C02032809D10122694673
:104CB000284600F064F808E095F89C02032804D028
:104CC0002146284600F036F802263046BDE8FC8131
:104CD00010B5D0F8B812A1B1D1F814220AB1012050
:104CE00010BD0122C1F81422D1F810220263B1F8DC
:104CF000102293B2D1F80822812100F038FB002065
:104D000010BD022010BD10B5D0F8B42252689047F3
:104D1000002010BD134610B50A46002100F08CFAA1
:104D2000002010BD134610B50A46002100F01FFBFD
:104D3000002010BD10B50446802100F0FDFA204689
:104D4000BDE81040002100F0F7BA10B50323C0F809
:104D50005C21C0F89432C0F8602113460A46002155
:104D600000F06AFA002010BD10B505210023C0F83C
:104D700094121A46194600F05FFA002010BD10B5D3
:104D80000223C261C0F89432026213460A4600212F
:104D900000F0EDFA002010BD10B504210023C0F88A
:104DA00094121A46194600F0E2FA002010BD0000E5
:104DB00010B50A46024903A000F0E2F8004810BD11
:104DC0006807002043444320436F6E666967000014
:104DD00012200880004870473400002010B50A46B1
:104DE000024903A000F0CCF8004810BD680700207D
:104DF00043444320496E7465726661636500000038
:104E000004200880004870473000002010B50A4692
:104E1000024903A000F0B4F8004810BD6807002064
:104E200053544D6963726F656C656374726F6E691C
:104E30006373000010B50A46024903A000F0A0F811
:104E4000004810BD6807002053544D333220566986
:104E5000727475616C20436F6D506F727400000046
:104E600010B51A2008800A480168001D0468001D5A
:104E70000068081809D008220649FFF7ABF9054970
:104E8000042210312046FFF7A5F90248801E10BD0C
:104E9000E8F7FF1F4A000020F8B504460020ADF8EF
:104EA000000048880D46010A082948D2DFE801F0D1
:104EB0004704091747473C45D4F8B012207C0A68DC
:104EC00019E0207C02260028D4F8B40205D0C16A7B
:104ED00068468847014646703EE0816AF8E7C0B2FE
:104EE00006282CD2DFE800F0030A1014181CD4F8AE
:104EF000B002426805E0694690471CE0D4F8B00271
:104F00008268E2B1207CF6E7D4F8B002C268F8E724
:104F1000D4F8B0020269F4E7D4F8B0024269F0E7CD
:104F2000D4F8B0028269ECE7207C40B9D4F8B4022E
:104F3000416B6846884701460EE0207C20B1294637
:104F40002046FFF7F7FEF8BDD4F8B402016B6846BF
:104F50008847014607204870BDF8000048B1EA883C
:104F600052B1824200D90246ADF800202046FFF738
:104F700006FFE8880028E6D12046FFF70DFFF8BDC0
:104F800070B5002300281ED00446002502E06D1CE9
:104F9000EDB2641C2678002EF9D1022404EB4504FE
:104FA00014801278CA545B1C0322CA5400245B1C70
:104FB00006E0CA545B1CDAB28C54521CD3B2401CBB
:104FC0000278002AF5D170BD01004FF0000004D036
:104FD000012901D0022901D0022070470120704729
:104FE00010B580B1D0F8B43213B10023C0F8B43298
:104FF00009B1C0F8B012012180F89C12027000F0D3
:10500000BFF8002010BD022010BD10B5D0F8C002BE
:10501000FEF708F8BDE81040FFF7D6BF10B5D0F88E
:10502000C002FDF7D9FFBDE81040FFF7CDBF2DE965
:10503000F0411746044651B1D4F8B40242691AB19E
:1050400094F89C02032851D00220BDE8F081D4F8E6
:105050009432002504F11400022B03D0042B3AD023
:10506000C3B33CE0D0E903639E4207D9F11AC160A3
:105070008AB239462046FFF755FE12E08068B0FB41
:10508000F3F103FB110199B9984211D3D4F89812A6
:1050900088420DD2002211462046FFF743FEC4F895
:1050A000985200231A461946204600F0C5F816E02B
:1050B000D4F8B402C16829B194F89C02032801D144
:1050C000204688478021204600F036F92046FFF729
:1050D0004BFE04E0FFE78021204600F02DF994F814
:1050E000A002012804D184F8A05201E02046904794
:1050F0000020AAE770B51546044649B1D4F8B402B9
:1051000082691AB194F89C02032830D0022070BD45
:10511000D4F8941204F5AA70032902D005291ED0F0
:1051200027E0D0E903218A420BD9531AC36008460D
:10513000834200D303469AB229462046FFF7EAFD90
:1051400017E0D4F8B402016929B194F89C0203284D
:1051500001D1204688472046FFF71EFE09E00020C7
:105160000146C4F89402204600F0E6F801E020462B
:105170009047002070BDD0F8C002FEF78CB9000047
:1051800010B504461C481D49C0F8E842C4F8C002E6
:105190000160082141600221816000218161C161BB
:1051A0000162FEF7C7FA08B1FDF7B5FC0022D4F89A
:1051B000C0021823114604F53074FDF7DBFE5823B6
:1051C000002280212068FDF7D5FEC0230022812126
:1051D0002068FDF7CFFE4FF488730022012120687C
:1051E000FDF7C8FE4FF48073002282212068FDF78E
:1051F000C1FE002010BD0000C8130020005C00406C
:105200000A0601F07F01D0F8C00201EB810100EB3A
:10521000C10002D590F82A00704790F86A017047E3
:1052200010B51C461346D0F8C0022246FEF73CF9E2
:10523000BDE81040FFF7C8BE10B5D0F8C002FEF7B9
:1052400063F9BDE81040FFF7BFBE70B50022044609
:1052500040231146FFF7E4FF40260125C4F86461AE
:105260003346002280212046C4F85851FFF7D8FF6A
:105270006662A56184F89C520020C4F894026060C4
:10528000C4F8A402D4F8B80228B1D4F8B4020021BA
:10529000426820469047002070BD90F89C12042977
:1052A00003D190F89D1280F89C120020704710B531
:1052B00090F89C12032904D1D0F8B412C96901B145
:1052C0008847002010BD01740020704710B5D0F849
:1052D000C002FEF7DEFABDE81040FFF775BE70B5FC
:1052E000044600F52A70054600F04AF80120C4F88B
:1052F0009402B4F8AE02C4F8980294F8A80210F030
:105300001F010AD001290DD0022910D000F0800120
:10531000204600F011F8002070BD2946204600F01C
:105320009EF8F8E72946204600F0CAF9F3E7294637
:10533000204600F01DF9EEE710B5D0F8C002FEF7E8
:10534000FCF8BDE81040FFF73FBE10B5D0F8C00232
:10535000FEF7BAFABDE81040FFF736BE90F89C128F
:1053600080F89D12042180F89C120020704710B52F
:10537000D0F8C002FEF71AF9BDE81040FFF724BECE
:105380000A7802704A7842708A78CB7802EB03225E
:1053900042800A794B7902EB032282808A79C979AB
:1053A00002EB0121C18070470246002011B1C2F812
:1053B000B41270470220704710B5D0F8B42202240E
:1053C0001AB11268904700B90024204610BD0000B1
:1053D00070B50E461E4D897804462970012931D8D2
:1053E00094F89C0202280BD003280FD031462046A7
:1053F000FFF7A0FC29782046BDE87040FFF783BC8A
:10540000D9B10320616084F89C0209E071B1606841
:10541000884212D0C1B22046FFF775FC297861603E
:105420002046FFF7C9FF02280CD006E0022084F8CE
:105430009C0220466160FFF766FC2046BDE8704094
:10544000FFF7AABC31462046BDE87040FFF772BCAA
:10545000E800002010B5FFF778FF002010BD2DE90F
:10546000F0410A78002612F0600208D0202A01D00C
:10547000402A70D1D0F8B422926890476DE04B7802
:10548000002201250A2B66D2DFE803F0405D655754
:10549000650805652C29FFF7FFFC5EE00446888857
:1054A000D8B9C888C8B94888802816D200F07F07C4
:1054B00094F89C02032810D084F89E723946204646
:1054C000FFF704FF2046FFF767FC1FB1022084F8B6
:1054D0009C0242E084F89C523FE020463BE0FFF70C
:1054E00077FF3AE0CB88012B35D190F89C32012B25
:1054F00004D0022B02D0032B2DD104E082600122C4
:1055000000F1080116E00122011D13E090F89C2231
:10551000012A03D0022A01D0032A1CD1CA88022AF8
:1055200019D1C560D0F8A41209B10321C1600222CB
:1055300000F10C01FFF723FC0FE0498801290CD191
:10554000C0F8A45211E090F89C32012B08D0022B35
:1055500006D0032B04D0FFF7EDFB3046BDE8F08109
:1055600049880129F9D1C0F8A422FFF715FCF4E716
:105570002DE9F0410A46044610780027097910F019
:1055800060030AD0202B01D0402B50D1D4F8B402B4
:1055900011468368204698478FE0C0F341100128E8
:1055A00006D05078D0B301282AD003283FD107E095
:1055B000D4F8B402114683682046BDE8F04118478C
:1055C00094F89C02022802D0032872D10AE071B339
:1055D00080296ED02046FFF7AFFE80212046FFF7DE
:1055E000ABFE6AE0508838B931B1802904D0D08848
:1055F00010B92046FFF7A0FE2046FFF7CDFB5CE088
:1056000094F89C020228E2D0032852D1508898BB1B
:105610004806F1D02046FFF7F8FCEDE7FFE794F8E5
:105620009C020026022803D0032842D112E040E069
:1056300009B180293DD1080601F07F0000EB800010
:1056400004EB800101D5143101E001F5AA710222B9
:105650000E602AE0080601F00F0000EB800004EB6A
:1056600080000AD5806920B301F07F0000EB800044
:1056700004EB800514350BE01FE0D0F85801C0B1F1
:1056800001F07F0000EB800004EB800505F5AA75B2
:1056900041B1802906D02046FFF7B2FD10B10120AC
:1056A000286000E02E60022229462046FFF767FBB3
:1056B00003E011462046FFF73DFB3846BDE8F08188
:1056C00070B5054608780C4610F0600003D020281D
:1056D00001D0402816D195F89C02012803D0022859
:1056E00001D003280ED1207901280BD8D5F8B402B7
:1056F000826828469047E188014306D12846FFF793
:105700004BFB02E02846FFF715FB002070BD7047F9
:1057100000487047A81100202DE9F0470C780026BA
:1057200030F8243048F68F121340CA78002A7DD012
:10573000012A7CD0022A02D0032A7FD0012648F217
:105740008002134320F824300D7830F8254048F6C5
:105750008F731C402C43144320F825400D7B48F2E6
:10576000C00C48F6BF744CF280074BF68F79EDB34E
:1057700091F80080C24630F8285048F280181D4049
:1057800045EA080520F82A50B0F8505091F80080FA
:10579000054405EB0815B1F8088028F00108A5F8C4
:1057A0000084B0F8505091F80080054405EB0815CE
:1057B000B1F80A8028F00108A5F808844D78002D7A
:1057C0000D7830F825804FEA48487DD0B8F1000FB9
:1057D00007DA30F8258008EA030848EA070820F8C5
:1057E00025800F7830F827506D0600E02CE006D5B4
:1057F00030F827501D4045EA0C0520F82750CB789B
:105800000D78012B30F8253003EA040301D083F032
:105810002003134320F825300B7830F8231001EAD9
:105820000901114320F82310304602E003E008E0AC
:1058300004E0BDE8F08743F4007380E743F4C063FD
:105840007DE743F480637AE74D782DB3B0F850508C
:105850000F78054405EB0715CF8827F00107A5F859
:1058600000740F7830F827506D0606D530F82750B1
:105870001D4045EA0C0520F82750CB78012B06D0B7
:105880000B7830F82310214081F02001C9E70B7814
:1058900030F823102140C4E7B0F850400D7804449C
:1058A00004EB0514CD8825F00105A4F80854B0F8E0
:1058B00050400D78044404EB05140D6904F20C44C7
:1058C00075B13E2D14D800E030E04FEA550CED07DD
:1058D00001D00CF1010C4FF6FF7505EA8C2511E0A3
:1058E000258825F4F8452580258845F4004509E0FC
:1058F0004FEA551CED0601D1ACF1010C4FF4004507
:1059000045EA8C2525800D7830F82540640405D5BE
:1059100030F825401C403C4320F825400B7830F8F7
:10592000231001EA090181F440517AE7B8F1000F30
:1059300007DA30F8258008EA030848EA070820F863
:1059400025800F7830F827506D0606D530F827509F
:105950001D4045EA0C0520F827500D7830F8253019
:1059600003EA090383F44053134320F825308EE7FC
:10597000002070472DE9F04391F80C804F780A78A9
:1059800048F6BF7C4BF68F7948F2800348F2C00599
:105990004CF2800648F68F74B8F1000F28D0002F23
:1059A00030F822704FEA474748D0002F05DA30F828
:1059B00022702740374320F822700A7830F822708E
:1059C0007F0605D530F8227027402F4320F822703B
:1059D0000D7830F825202240324320F825200C781D
:1059E00030F8242002EA0C021A4320F824201AE09E
:1059F0007FB130F82260760605D530F82260264067
:105A00002E4320F822600A7830F8221001EA0C01B7
:105A10000EE030F822506D0405D530F822502540B4
:105A2000354320F822500A7830F8221001EA0901A3
:105A3000194320F822100020BDE8F083002F05DA7A
:105A400030F822702740374320F822700A7830F867
:105A50002260760605D530F8226026402E4320F8D5
:105A600022600E7830F8262022402A4320F8262093
:105A70000C7830F8242002EA09021A4320F8242086
:105A8000C1E70020704700207047012120F8401F27
:105A900000210180818001820846704730F8401F54
:105AA00021F43F410180002070470020704730B54D
:105AB0000A7BB2BB4A7848F68F7548F28004C2B1BF
:105AC0000B7830F82320520607D530F823202A40DF
:105AD00048F2C0052A4320F82320CA78012A20D0A2
